{
  "_format": "hh-sol-artifact-1",
  "contractName": "CryptoDevsDAO",
  "sourceName": "contracts/CryptoDevsDAO.sol",
  "abi": [
    {
      "inputs": [
        {
          "internalType": "address",
          "name": "_nftMarketplace",
          "type": "address"
        },
        {
          "internalType": "address",
          "name": "_cryptoDevsNFT",
          "type": "address"
        }
      ],
      "stateMutability": "payable",
      "type": "constructor"
    },
    {
      "anonymous": false,
      "inputs": [
        {
          "indexed": true,
          "internalType": "address",
          "name": "previousOwner",
          "type": "address"
        },
        {
          "indexed": true,
          "internalType": "address",
          "name": "newOwner",
          "type": "address"
        }
      ],
      "name": "OwnershipTransferred",
      "type": "event"
    },
    {
      "stateMutability": "payable",
      "type": "fallback"
    },
    {
      "inputs": [
        {
          "internalType": "uint256",
          "name": "_nftTokenId",
          "type": "uint256"
        }
      ],
      "name": "createProposal",
      "outputs": [
        {
          "internalType": "uint256",
          "name": "",
          "type": "uint256"
        }
      ],
      "stateMutability": "nonpayable",
      "type": "function"
    },
    {
      "inputs": [
        {
          "internalType": "uint256",
          "name": "proposalIndex",
          "type": "uint256"
        }
      ],
      "name": "executeProposal",
      "outputs": [],
      "stateMutability": "nonpayable",
      "type": "function"
    },
    {
      "inputs": [],
      "name": "numProposals",
      "outputs": [
        {
          "internalType": "uint256",
          "name": "",
          "type": "uint256"
        }
      ],
      "stateMutability": "view",
      "type": "function"
    },
    {
      "inputs": [],
      "name": "owner",
      "outputs": [
        {
          "internalType": "address",
          "name": "",
          "type": "address"
        }
      ],
      "stateMutability": "view",
      "type": "function"
    },
    {
      "inputs": [
        {
          "internalType": "uint256",
          "name": "",
          "type": "uint256"
        }
      ],
      "name": "proposals",
      "outputs": [
        {
          "internalType": "uint256",
          "name": "nftTokenId",
          "type": "uint256"
        },
        {
          "internalType": "uint256",
          "name": "deadline",
          "type": "uint256"
        },
        {
          "internalType": "uint256",
          "name": "yayVotes",
          "type": "uint256"
        },
        {
          "internalType": "uint256",
          "name": "nayVotes",
          "type": "uint256"
        },
        {
          "internalType": "bool",
          "name": "executed",
          "type": "bool"
        }
      ],
      "stateMutability": "view",
      "type": "function"
    },
    {
      "inputs": [],
      "name": "renounceOwnership",
      "outputs": [],
      "stateMutability": "nonpayable",
      "type": "function"
    },
    {
      "inputs": [
        {
          "internalType": "address",
          "name": "newOwner",
          "type": "address"
        }
      ],
      "name": "transferOwnership",
      "outputs": [],
      "stateMutability": "nonpayable",
      "type": "function"
    },
    {
      "inputs": [
        {
          "internalType": "enum CryptoDevsDAO.Vote",
          "name": "vote",
          "type": "uint8"
        },
        {
          "internalType": "uint256",
          "name": "proposalIndex",
          "type": "uint256"
        }
      ],
      "name": "voteOnProposal",
      "outputs": [],
      "stateMutability": "nonpayable",
      "type": "function"
    },
    {
      "inputs": [],
      "name": "withdrawEther",
      "outputs": [],
      "stateMutability": "nonpayable",
      "type": "function"
    },
    {
      "stateMutability": "payable",
      "type": "receive"
    }
  ],
  "bytecode": "0x6080604052604051620019e7380380620019e7833981810160405281019062000029919062000209565b620000496200003d620000d360201b60201c565b620000db60201b60201c565b81600160006101000a81548173ffffffffffffffffffffffffffffffffffffffff021916908373ffffffffffffffffffffffffffffffffffffffff16021790555080600260006101000a81548173ffffffffffffffffffffffffffffffffffffffff021916908373ffffffffffffffffffffffffffffffffffffffff160217905550505062000250565b600033905090565b60008060009054906101000a900473ffffffffffffffffffffffffffffffffffffffff169050816000806101000a81548173ffffffffffffffffffffffffffffffffffffffff021916908373ffffffffffffffffffffffffffffffffffffffff1602179055508173ffffffffffffffffffffffffffffffffffffffff168173ffffffffffffffffffffffffffffffffffffffff167f8be0079c531659141344cd1fd0a4f28419497f9722a3daafe3b4186f6b6457e060405160405180910390a35050565b600080fd5b600073ffffffffffffffffffffffffffffffffffffffff82169050919050565b6000620001d182620001a4565b9050919050565b620001e381620001c4565b8114620001ef57600080fd5b50565b6000815190506200020381620001d8565b92915050565b600080604083850312156200022357620002226200019f565b5b60006200023385828601620001f2565b92505060206200024685828601620001f2565b9150509250929050565b61178780620002606000396000f3fe60806040526004361061008a5760003560e01c80635a43dc00116100595780635a43dc0014610151578063715018a61461018e5780637362377b146101a55780638da5cb5b146101bc578063f2fde38b146101e757610091565b8063013cf08b146100935780630d61b519146100d45780632efac99a146100fd578063400e39491461012657610091565b3661009157005b005b34801561009f57600080fd5b506100ba60048036038101906100b59190610f9d565b610210565b6040516100cb959493929190610ff4565b60405180910390f35b3480156100e057600080fd5b506100fb60048036038101906100f69190610f9d565b610253565b005b34801561010957600080fd5b50610124600480360381019061011f919061106c565b6105aa565b005b34801561013257600080fd5b5061013b610a17565b60405161014891906110ac565b60405180910390f35b34801561015d57600080fd5b5061017860048036038101906101739190610f9d565b610a1d565b60405161018591906110ac565b60405180910390f35b34801561019a57600080fd5b506101a3610c3e565b005b3480156101b157600080fd5b506101ba610c52565b005b3480156101c857600080fd5b506101d1610caa565b6040516101de9190611108565b60405180910390f35b3480156101f357600080fd5b5061020e6004803603810190610209919061114f565b610cd3565b005b60036020528060005260406000206000915090508060000154908060010154908060020154908060030154908060040160009054906101000a900460ff16905085565b8042600360008381526020019081526020016000206001015411156102ad576040517f08c379a00000000000000000000000000000000000000000000000000000000081526004016102a4906111d9565b60405180910390fd5b600115156003600083815260200190815260200160002060040160009054906101000a900460ff16151514610317576040517f08c379a000000000000000000000000000000000000000000000000000000000815260040161030e90611245565b60405180910390fd5b6000600260009054906101000a900473ffffffffffffffffffffffffffffffffffffffff1673ffffffffffffffffffffffffffffffffffffffff166370a08231336040518263ffffffff1660e01b81526004016103749190611108565b602060405180830381865afa158015610391573d6000803e3d6000fd5b505050506040513d601f19601f820116820180604052508101906103b5919061127a565b116103f5576040517f08c379a00000000000000000000000000000000000000000000000000000000081526004016103ec906112f3565b60405180910390fd5b6000600360008481526020019081526020016000209050806003015481600201541115610588576000600160009054906101000a900473ffffffffffffffffffffffffffffffffffffffff1673ffffffffffffffffffffffffffffffffffffffff166398d5fdca6040518163ffffffff1660e01b8152600401602060405180830381865afa15801561048b573d6000803e3d6000fd5b505050506040513d601f19601f820116820180604052508101906104af919061127a565b9050804710156104f4576040517f08c379a00000000000000000000000000000000000000000000000000000000081526004016104eb9061135f565b60405180910390fd5b600160009054906101000a900473ffffffffffffffffffffffffffffffffffffffff1673ffffffffffffffffffffffffffffffffffffffff1663efef39a18284600001546040518363ffffffff1660e01b815260040161055491906110ac565b6000604051808303818588803b15801561056d57600080fd5b505af1158015610581573d6000803e3d6000fd5b5050505050505b60018160040160006101000a81548160ff021916908315150217905550505050565b6000600260009054906101000a900473ffffffffffffffffffffffffffffffffffffffff1673ffffffffffffffffffffffffffffffffffffffff166370a08231336040518263ffffffff1660e01b81526004016106079190611108565b602060405180830381865afa158015610624573d6000803e3d6000fd5b505050506040513d601f19601f82011682018060405250810190610648919061127a565b11610688576040517f08c379a000000000000000000000000000000000000000000000000000000000815260040161067f906112f3565b60405180910390fd5b80426003600083815260200190815260200160002060010154116106e1576040517f08c379a00000000000000000000000000000000000000000000000000000000081526004016106d8906113cb565b60405180910390fd5b60006003600084815260200190815260200160002090506000600260009054906101000a900473ffffffffffffffffffffffffffffffffffffffff1673ffffffffffffffffffffffffffffffffffffffff166370a08231336040518263ffffffff1660e01b81526004016107559190611108565b602060405180830381865afa158015610772573d6000803e3d6000fd5b505050506040513d601f19601f82011682018060405250810190610796919061127a565b90506000805b828110156109635761084a600260009054906101000a900473ffffffffffffffffffffffffffffffffffffffff1673ffffffffffffffffffffffffffffffffffffffff16632f745c5933846040518363ffffffff1660e01b81526004016108049291906113eb565b602060405180830381865afa158015610821573d6000803e3d6000fd5b505050506040513d601f19601f82011682018060405250810190610845919061127a565b610d56565b6000600260009054906101000a900473ffffffffffffffffffffffffffffffffffffffff1673ffffffffffffffffffffffffffffffffffffffff16632f745c5933846040518363ffffffff1660e01b81526004016108a99291906113eb565b602060405180830381865afa1580156108c6573d6000803e3d6000fd5b505050506040513d601f19601f820116820180604052508101906108ea919061127a565b90506000151585600501600083815260200190815260200160002060009054906101000a900460ff1615150361094f57828061092590611443565b9350506001151585600501600083815260200190815260200160002060009054906101000a905050505b50808061095b90611443565b91505061079c565b50600081116109a7576040517f08c379a000000000000000000000000000000000000000000000000000000000815260040161099e906114d7565b60405180910390fd5b600060018111156109bb576109ba6114f7565b5b8660018111156109ce576109cd6114f7565b5b036109f357808360020160008282546109e79190611526565b92505081905550610a0f565b80836003016000828254610a079190611526565b925050819055505b505050505050565b60045481565b600080600260009054906101000a900473ffffffffffffffffffffffffffffffffffffffff1673ffffffffffffffffffffffffffffffffffffffff166370a08231336040518263ffffffff1660e01b8152600401610a7b9190611108565b602060405180830381865afa158015610a98573d6000803e3d6000fd5b505050506040513d601f19601f82011682018060405250810190610abc919061127a565b11610afc576040517f08c379a0000000000000000000000000000000000000000000000000000000008152600401610af3906112f3565b60405180910390fd5b600160009054906101000a900473ffffffffffffffffffffffffffffffffffffffff1673ffffffffffffffffffffffffffffffffffffffff166396e494e8836040518263ffffffff1660e01b8152600401610b5791906110ac565b602060405180830381865afa158015610b74573d6000803e3d6000fd5b505050506040513d601f19601f82011682018060405250810190610b989190611586565b610bd7576040517f08c379a0000000000000000000000000000000000000000000000000000000008152600401610bce906115ff565b60405180910390fd5b6000600360006004548152602001908152602001600020905082816000018190555061012c42610c079190611526565b816001018190555060046000815480929190610c2290611443565b91905055506001600454610c36919061161f565b915050919050565b610c46610def565b610c506000610e6d565b565b610c5a610def565b610c62610caa565b73ffffffffffffffffffffffffffffffffffffffff166108fc479081150290604051600060405180830381858888f19350505050158015610ca7573d6000803e3d6000fd5b50565b60008060009054906101000a900473ffffffffffffffffffffffffffffffffffffffff16905090565b610cdb610def565b600073ffffffffffffffffffffffffffffffffffffffff168173ffffffffffffffffffffffffffffffffffffffff1603610d4a576040517f08c379a0000000000000000000000000000000000000000000000000000000008152600401610d41906116c5565b60405180910390fd5b610d5381610e6d565b50565b610dec81604051602401610d6a91906110ac565b6040516020818303038152906040527ff82c50f1000000000000000000000000000000000000000000000000000000007bffffffffffffffffffffffffffffffffffffffffffffffffffffffff19166020820180517bffffffffffffffffffffffffffffffffffffffffffffffffffffffff8381831617835250505050610f31565b50565b610df7610f5a565b73ffffffffffffffffffffffffffffffffffffffff16610e15610caa565b73ffffffffffffffffffffffffffffffffffffffff1614610e6b576040517f08c379a0000000000000000000000000000000000000000000000000000000008152600401610e6290611731565b60405180910390fd5b565b60008060009054906101000a900473ffffffffffffffffffffffffffffffffffffffff169050816000806101000a81548173ffffffffffffffffffffffffffffffffffffffff021916908373ffffffffffffffffffffffffffffffffffffffff1602179055508173ffffffffffffffffffffffffffffffffffffffff168173ffffffffffffffffffffffffffffffffffffffff167f8be0079c531659141344cd1fd0a4f28419497f9722a3daafe3b4186f6b6457e060405160405180910390a35050565b60008151905060006a636f6e736f6c652e6c6f679050602083016000808483855afa5050505050565b600033905090565b600080fd5b6000819050919050565b610f7a81610f67565b8114610f8557600080fd5b50565b600081359050610f9781610f71565b92915050565b600060208284031215610fb357610fb2610f62565b5b6000610fc184828501610f88565b91505092915050565b610fd381610f67565b82525050565b60008115159050919050565b610fee81610fd9565b82525050565b600060a0820190506110096000830188610fca565b6110166020830187610fca565b6110236040830186610fca565b6110306060830185610fca565b61103d6080830184610fe5565b9695505050505050565b6002811061105457600080fd5b50565b60008135905061106681611047565b92915050565b6000806040838503121561108357611082610f62565b5b600061109185828601611057565b92505060206110a285828601610f88565b9150509250929050565b60006020820190506110c16000830184610fca565b92915050565b600073ffffffffffffffffffffffffffffffffffffffff82169050919050565b60006110f2826110c7565b9050919050565b611102816110e7565b82525050565b600060208201905061111d60008301846110f9565b92915050565b61112c816110e7565b811461113757600080fd5b50565b60008135905061114981611123565b92915050565b60006020828403121561116557611164610f62565b5b60006111738482850161113a565b91505092915050565b600082825260208201905092915050565b7f444541444c494e455f4e4f545f45584345454445440000000000000000000000600082015250565b60006111c360158361117c565b91506111ce8261118d565b602082019050919050565b600060208201905081810360008301526111f2816111b6565b9050919050565b7f50524f504f53414c5f414c52454144595f455845435554454400000000000000600082015250565b600061122f60198361117c565b915061123a826111f9565b602082019050919050565b6000602082019050818103600083015261125e81611222565b9050919050565b60008151905061127481610f71565b92915050565b6000602082840312156112905761128f610f62565b5b600061129e84828501611265565b91505092915050565b7f4e4f545f415f44414f5f4d454d42455200000000000000000000000000000000600082015250565b60006112dd60108361117c565b91506112e8826112a7565b602082019050919050565b6000602082019050818103600083015261130c816112d0565b9050919050565b7f4e4f545f454e4f5547485f46554e445300000000000000000000000000000000600082015250565b600061134960108361117c565b915061135482611313565b602082019050919050565b600060208201905081810360008301526113788161133c565b9050919050565b7f444541444c494e455f4558434545444544000000000000000000000000000000600082015250565b60006113b560118361117c565b91506113c08261137f565b602082019050919050565b600060208201905081810360008301526113e4816113a8565b9050919050565b600060408201905061140060008301856110f9565b61140d6020830184610fca565b9392505050565b7f4e487b7100000000000000000000000000000000000000000000000000000000600052601160045260246000fd5b600061144e82610f67565b91507fffffffffffffffffffffffffffffffffffffffffffffffffffffffffffffffff82036114805761147f611414565b5b600182019050919050565b7f414c52454144595f564f54454400000000000000000000000000000000000000600082015250565b60006114c1600d8361117c565b91506114cc8261148b565b602082019050919050565b600060208201905081810360008301526114f0816114b4565b9050919050565b7f4e487b7100000000000000000000000000000000000000000000000000000000600052602160045260246000fd5b600061153182610f67565b915061153c83610f67565b925082820190508082111561155457611553611414565b5b92915050565b61156381610fd9565b811461156e57600080fd5b50565b6000815190506115808161155a565b92915050565b60006020828403121561159c5761159b610f62565b5b60006115aa84828501611571565b91505092915050565b7f4e46545f4e4f545f464f525f53414c4500000000000000000000000000000000600082015250565b60006115e960108361117c565b91506115f4826115b3565b602082019050919050565b60006020820190508181036000830152611618816115dc565b9050919050565b600061162a82610f67565b915061163583610f67565b925082820390508181111561164d5761164c611414565b5b92915050565b7f4f776e61626c653a206e6577206f776e657220697320746865207a65726f206160008201527f6464726573730000000000000000000000000000000000000000000000000000602082015250565b60006116af60268361117c565b91506116ba82611653565b604082019050919050565b600060208201905081810360008301526116de816116a2565b9050919050565b7f4f776e61626c653a2063616c6c6572206973206e6f7420746865206f776e6572600082015250565b600061171b60208361117c565b9150611726826116e5565b602082019050919050565b6000602082019050818103600083015261174a8161170e565b905091905056fea264697066735822122020833dd4ac65752c10bb126f9aae954eb2bb048fb6d66472b2aee1c1864ee36864736f6c63430008110033",
  "linkReferences": {},
  "deployedLinkReferences": {}
}